:108134002F6C69622F6C642D6C696E75782E736F69
:038144002E3300D7
:10814800040000001000000001000000474E550028
:1081580000000000020000000600000010000000FF
:10816800610000006E0000005900000000000000DF
:108178000000000061000000000000000000000096
:108188003C000000670000002C00000053000000C5
:108198000000000052000000000000005400000031
:1081A800000000000000000027000000060000009A
:1081B80041000000030000003D0000006D000000C9
:1081C8000000000043000000350000002900000006
:1081D800580000000E000000000000000000000031
:1081E8000000000000000000000000000000000087
:1081F80031000000280000006000000000000000BE
:108208005B0000005E0000003A0000005D00000016
:108218003800000066000000570000003F00000022
:10822800680000001F0000000000000000000000BF
:1082380000000000000000005A00000000000000DC
:1082480002000000000000002D00000017000000E0
:108258005F0000006A00000000000000330000001A
:10826800450000006500000000000000000000005C
:108278001B0000001400000037000000640000002C
:108288005100000000000000250000002F00000041
:10829800000000003E0000004900000069000000E6
:1082A80024000000000000006B0000004F000000E8
:1082B800360000000000000046000000300000000A
:1082C8004B00000000000000000000004A00000011
:1082D8000000000055000000000000000000000041
:1082E8004E000000480000006C0000000000000084
:1082F8000000000000000000000000000000000076
:108308000000000000000000000000000000000065
:108318000000000000000000000000000000000055
:10832800000000000900000000000000000000003C
:108338000000000000000000050000000000000030
:108348000000000000000000000000000000000025
:108358000A000000000000001200000000000000F9
:108368000000000000000000000000000000000005
:1083780000000000000000000400000000000000F1
:1083880000000000180000000000000000000000CD
:1083980000000000010000000000000010000000C4
:1083A80015000000000000001D0000000000000093
:1083B8001600000000000000000000002B00000074
:1083C800000000002A000000220000000000000059
:1083D800000000002E000000230000000000000044
:1083E800000000000000000007000000000000007E
:1083F800130000000D000000000000000000000055
:108408000000000000000000110000000000000053
:108418000F000000320000003B00000000000000D8
:108428001A0000000B0000000000000042000000DD
:10843800210000004D000000400000002600000060
:108448001C000000440000000000000000000000C4
:1084580000000000470000000C0000005000000071
:1084680000000000000000001900000008000000E3
:10847800200000001E000000340000005C00000026
:108488000000000039000000000000005600000055
:108498006300000000000000000000004C00000025
:0484A800620000006E
:1084AC0000000000000000000000000000000000C0
:1084BC00A8050000E80702000C00000011001800DD
:1084CC00240C00005C9D0000000000001200000065
:1084DC001B0200006C9D0000000000001200000058
:1084EC00850700007C9D00000000000012000000C9
:1084FC00240900008C9D0000000000001200000008
:10850C00E6050000989D000000000000120000002D
:10851C0005060000A89D00000000000012000000ED
:10852C00D9060000B89D00000000000012000000F9
:10853C00710B0000C89D000000000000120000003C
:10854C0058010000D89D000000000000120000003F
:10855C000F0C0000E89D000000000000120000005D
:10856C00F30B0000F89D000000000000120000005A
:10857C00B7000000404901003A00000022000C0046
:10858C00310C0000049E00000000000012000000EE
:10859C007E0B000000000000000000001200000034
:1085AC00610B0000149E000000000000120000008F
:1085BC0091070000249E0000000000001200000043
:1085CC00E0070000F807020014000000110018007A
:1085DC00E0040000349E00000000000012000000C7
:1085EC009B000000449E00000000000012000000F0
:1085FC003501000000000000000000002000000019
:10860C0044010000000000000000000020000000F9
:10861C00900A0000609E00000000000012000000A4
:10862C0010000000709E000000000000120000000E
:10863C0007020000809E00000000000012000000F5
:10864C0084010000909E0000000000001200000059
:10865C00F8060000A09E00000000000012000000C0
:10866C006D0A0000B09E0000000000001200000027
:10867C0061040000C09E0000000000001200000019
:10868C00170C0000D09E000000000000120000003B
:10869C008A080000E09E00000000000012000000AC
:1086AC003A0B0000F09E00000000000012000000D9
:1086BC00AC0A0000009F0000000000001200000047
:1086CC006D090000109F0000000000001200000067
:1086DC00F9000000209F00000000000012000000C4
:1086EC0036060000309F0000000000001200000061
:1086FC00DF010000409F000000000000120000009D
:10870C00F20A0000509F0000000000001200000060
:10871C0060060000609F00000000000012000000D6
:10872C007A080000709F000000000000120000009A
:10873C00480600007C9F00000000000012000000B2
:10874C00380900008C9F000000000000120000009F
:10875C00D502000000000000000000002000000016
:10876C00A70100009C9F0000000000001200000008
:10877C0041020000AC9F000000000000120000004D
:10878C0004030000BC9F0000000000001200000069
:10879C006503000000000000000000002000000045
:1087AC00810A0000CC9F00000000000012000000B5
:1087BC0031050000DC9F00000000000012000000EA
:1087CC00FA0B000000000000000000002200000076
:1087DC0054080000100802002C00000011001800C2
:1087EC00F3010000FC9F00000000000012000000DC
:1087FC00A20800000CA00000000000001200000005
:10880C00CF0B000000000000000000002200000060
:10881C005B05000028A00000000000001200000012
:10882C00B107000038A0000000000000120000009A
:10883C004407000048A000000000000012000000E7
:10884C002E02000058A000000000000012000000E2
:10885C009B01000068A00000000000001200000056
:10886C002E090000400802008C00000011001800C6
:10887C001D03000078A000000000000012000000A2
:10888C00B104000088A000000000000012000000ED
:10889C00B208000098A000000000000012000000C8
:1088AC00F1020000A4A00000000000001200000073
:1088BC007B0A0000B4A000000000000012000000C1
:1088CC001E0C0000C4A000000000000012000000FC
:1088DC00BD050000D4A00000000000001200000044
:1088EC00C60B0000E4A00000000000001200000015
:1088FC00C8090000F4A000000000000012000000F5
:10890C006F04000004A10000000000001200000031
:10891C00FF0A0000D00802002C0000001100180013
:10892C007B00000014A100000000000012000000F9
:10893C007F03000024A100000000000012000000D2
:10894C001F00000034A10000000000001200000015
:10895C004C03000044A100000000000012000000C5
:10896C009D09000054A1000000000000120000004E
:10897C006600000064A1000000000000120000006E
:10898C00DF080000000000000000000020000000D4
:10899C00290C000074A1000000000000120000006F
:1089AC000E03000084A10000000000001200000073
:1089BC00C806000094A10000000000001200000096
:1089CC00F5070000A4A10000000000001200000048
:1089DC002A080000000902002C00000011001800F9
:1089EC00020A0000B4A10000000000001200000008
:1089FC00CE050000C4A10000000000001200000021
:108A0C00E7060000D4A100000000000012000000E6
:108A1C00F4080000E4A100000000000012000000B7
:108A2C00280B0000F4A10000000000001200000060
:108A3C003E0A000004A2000000000000120000002A
:108A4C007507000014A200000000000012000000D6
:108A5C00EC05000024A20000000000001200000041
:108A6C001104000030A20000000000001200000001
:108A7C00DA05000040A20000000000001200000017
:108A8C008900000050A2000000000000120000004D
:108A9C00AA09000060A20000000000001200000003
:108AAC002C07000070A20000000000001200000063
:108ABC00BE0B000080A200000000000012000000AD
:108ACC000E02000090A20000000000001200000046
:108ADC004C0400009CA200000000000012000000EA
:108AEC008C020000ACA2000000000000120000008C
:108AFC00A5070000BCA2000000000000120000004E
:108B0C00CB030000CCA2000000000000120000000B
:108B1C0058000000DCA20000000000001200000061
:108B2C00B60B0000ECA200000000000012000000D8
:108B3C00950B000000000000000000001200000077
:108B4C00EC000000FCA2000000000000120000007D
:108B5C00240600000CA3000000000000120000001E
:108B6C00E20B00001CA3000000000000120000003B
:108B7C00730500002CA30000000000001200000090
:108B8C00006C6962737464632B2B2E736F2E36002A
:108B9C005F5A4E4B537335635F7374724576005F47
:108BAC005A4E5374313962617369635F6F737472B7
:108BBC00696E6773747265616D49635374313163A7
:108BCC006861725F7472616974734963455361497A
:108BDC0063454544314576005F5A4E5373356265A3
:108BEC0067696E4576005F5F6378615F6672656585
:108BFC005F657863657074696F6E005F5A4E4B5396
:108C0C007334646174614576005F5F6378615F62A1
:108C1C006567696E5F6361746368005F5A4E537475
:108C2C00313372756E74696D655F6572726F724304
:108C3C003245524B5373005F5A5374706C496353F3
:108C4C00743131636861725F747261697473496302
:108C5C0045536149634545536249545F54305F54F1
:108C6C00315F45524B53365F53385F005F5A4E535A
:108C7C0073615345524B5373005F5A4E4B537431CF
:108C8C003962617369635F6F737472696E67737451
:108C9C007265616D496353743131636861725F74DD
:108CAC007261697473496345536149634545337314
:108CBC0074724576005F5F676D6F6E5F737461727F
:108CCC00745F5F005F4A765F5265676973746572A3
:108CDC00436C6173736573005F5A4E5374385F5FF6
:108CEC0064657461696C31355F4C6973745F6E6F68
:108CFC0064655F62617365395F4D5F756E686F6F38
:108D0C006B4576005F5A5374313573797374656DA6
:108D1C005F63617465676F727976005F5A4E537347
:108D2C006153454F5373005F5A53746C73495374BA
:108D3C003131636861725F74726169747349634540
:108D4C0045525374313362617369635F6F7374722C
:108D5C0065616D4963545F4553355F504B63005FEC
:108D6C005A4E4B537337636F6D7061726545524B3E
:108D7C005373005F5F6378615F67756172645F72E4
:108D8C00656C65617365005F5A646C5076005F5A60
:108D9C004E536149634543314576005F5A4E5373D8
:108DAC0036696E73657274456A524B5373005F5A21
:108DBC004E5373433145504B63524B53614963459A
:108DCC00005F5A5374727349635374313163686131
:108DDC00725F747261697473496345536149634589
:108DEC0045525374313362617369635F6973747292
:108DFC0065616D49545F54305F4553375F52536220
:108E0C004953345F53355F54315F45005F5A4E53BD
:108E1C0074313962617369635F6F737472696E6701
:108E2C0073747265616D4963537431316368617237
:108E3C005F74726169747349634553614963454555
:108E4C00433145537431335F496F735F4F70656EB7
:108E5C006D6F6465005F49544D5F64657265676949
:108E6C0073746572544D436C6F6E655461626C65BE
:108E7C00005F5F6378615F707572655F76697274AD
:108E8C0075616C005F5A4E537344314576005F5FD9
:108E9C0061656162695F617465786974005F5A4EDF
:108EAC005374313462617369635F6966737472659C
:108EBC00616D496353743131636861725F747261BF
:108ECC006974734963454544314576005F5F637847
:108EDC00615F616C6C6F636174655F65786365700D
:108EEC0074696F6E005F49544D5F72656769737486
:108EFC006572544D436C6F6E655461626C65005FB6
:108F0C005A53746C73496353743131636861725F83
:108F1C007472616974734963455361496345455281
:108F2C005374313362617369635F6F73747265611B
:108F3C006D49545F54305F4553375F524B53624910
:108F4C0053345F53355F54315F45005F5A4E537451
:108F5C00313462617369635F696673747265616DE4
:108F6C00496353743131636861725F7472616974FF
:108F7C007349634545346F70656E45524B5373535B
:108F8C007431335F496F735F4F70656E6D6F6465DD
:108F9C00005F5A537434656E646C49635374313199
:108FAC00636861725F747261697473496345455299
:108FBC005374313362617369635F6F73747265618B
:108FCC006D49545F54305F4553365F005F5F67787F
:108FDC00785F706572736F6E616C6974795F7630EF
:108FEC00005F5A4E4B53733473697A654576005F54
:108FFC005A537432395F52625F747265655F696E81
:10900C00736572745F616E645F726562616C616ED0
:10901C0063656250537431385F52625F7472656578
:10902C005F6E6F64655F6261736553305F52535F4F
:10903C00005F5A4E5374313462617369635F6F66BB
:10904C0073747265616D4963537431316368617215
:10905C005F747261697473496345454431457600A8
:10906C005F5A5374376765746C696E6549635374E2
:10907C003131636861725F747261697473496345FD
:10908C00536149634545525374313362617369636B
:10909C005F6973747265616D49545F54305F4553F9
:1090AC00375F5253624953345F53355F54315F45D8
:1090BC00005F5A4E4B53743962617369635F696F19
:1090CC0073496353743131636861725F747261699F
:1090DC007473496345456E744576005F5A4E5374FC
:1090EC00313273797374656D5F6572726F7244316E
:1090FC004576005F5A4E5374313462617369635F15
:10910C00696673747265616D496353743131636858
:10911C0061725F7472616974734963454537697331
:10912C005F6F70656E4576005F5A544953743132E7
:10913C0073797374656D5F6572726F72005F5A4EEE
:10914C004B537336737562737472456A6A005F5F52
:10915C006378615F7468726F77005F5F6378615FDB
:10916C0067756172645F61626F7274005F5A5374E9
:10917C0031375F5F7468726F775F6261645F616CD7
:10918C006C6F6376005F5A537432315F5F74687230
:10919C006F775F72756E74696D655F6572726F72F1
:1091AC00504B63005F5A4E537336617070656E643A
:1091BC0045524B5373005F5F6378615F656E645F0C
:1091CC00636C65616E7570005F5A4E537438696FCD
:1091DC00735F6261736534496E697444314576001E
:1091EC005F5A4E53743131746869735F7468726579
:1091FC00616431315F5F736C6565705F666F72457A
:10920C004E5374366368726F6E6F38647572617426
:10921C00696F6E4978537435726174696F494C7813
:10922C0031454C7831454545454E53315F4978536E
:10923C00325F494C7831454C7831303030303030F9
:10924C0030303045454545005F5A4E53733661709A
:10925C0070656E6445504B63005F5A4E53733563B3
:10926C006C6561724576005F5A4E536F6C73455056
:10927C004652536F535F45005F5A4E4B5374313413
:10928C0062617369635F6F6673747265616D496364
:10929C0053743131636861725F74726169747349BC
:1092AC006345453572646275664576005F5A537442
:1092BC00313667656E657269635F63617465676F8C
:1092CC00727976005F5A537431385F52625F7472F0
:1092DC0065655F696E6372656D656E74504B537432
:1092EC0031385F52625F747265655F6E6F64655F83
:1092FC0062617365005F5F6378615F656E645F6375
:10930C0061746368005F5A4E5373615345504B63ED
:10931C00005F5F6378615F67756172645F61637141
:10932C0075697265005F5A4E53734331454F5373E1
:10933C00005F5A4E5374313462617369635F6966BE
:10934C0073747265616D4963537431316368617212
:10935C005F747261697473496345454331457600A6
:10936C005F5A54565374313273797374656D5F65FB
:10937C0072726F72005F5A4E53743134626173694A
:10938C00635F6F6673747265616D496353743131D9
:10939C00636861725F7472616974734963454537C0
:1093AC0069735F6F70656E4576005F5A54564E3127
:1093BC00305F5F637878616269763132315F5F76F6
:1093CC006D695F636C6173735F747970655F696EEF
:1093DC00666F45005F5A54564E31305F5F63787844
:1093EC00616269763131375F5F636C6173735F748F
:1093FC007970655F696E666F45005F5A4E4B5373AB
:10940C00366C656E6774684576005F5A4E537438D7
:10941C00696F735F6261736534496E69744331457A
:10942C0076005F5A4E537336617070656E64456A90
:10943C0063005F5A4E5374385F5F64657461696C86
:10944C0031355F4C6973745F6E6F64655F62617315
:10945C0065375F4D5F686F6F6B455053305F005FD2
:10946C005F707468726561645F6B65795F63726568
:10947C00617465005F5A537431385F52625F747265
:10948C0065655F696E6372656D656E74505374319A
:10949C00385F52625F747265655F6E6F64655F62A0
:1094AC00617365005F5A4E537343314576005F5AC2
:1094BC00537434636F7574005F5A4E5374385F5F26
:1094CC0064657461696C31355F4C6973745F6E6F80
:1094DC0064655F6261736531315F4D5F7472616E9B
:1094EC0073666572455053305F53315F005F5A535A
:1094FC007431385F52625F747265655F6465637264
:10950C00656D656E7450537431385F52625F74725E
:10951C0065655F6E6F64655F62617365005F5A4E6F
:10952C00536149634544314576005F5A4E53693562
:10953C007365656B674578537431325F496F735F40
:10954C005365656B646972005F5A4E5374313562B2
:10955C00617369635F73747265616D62756649638B
:10956C0053743131636861725F74726169747349E9
:10957C0063454539707562736574627566455063F1
:10958C0069005F5A4E53743962617369635F696F26
:10959C0073496353743131636861725F74726169CA
:1095AC0074734963454535636C6561724553743119
:1095BC00325F496F735F496F7374617465005F5AF2
:1095CC004E5374313462617369635F6F6673747286
:1095DC0065616D496353743131636861725F747294
:1095EC00616974734963454543314576005F5F6338
:1095FC0078615F72657468726F77005F5A6E776A14
:10960C00005F5A4E4B537335656D70747945760017
:10961C005F5A537432305F5F7468726F775F73791F
:10962C007374656D5F6572726F7269005F5A4E5329
:10963C0074313462617369635F6F667374726561F0
:10964C006D496353743131636861725F747261691F
:10965C00747349634545346F70656E45524B537353
:10966C00537431335F496F735F4F70656E6D6F6408
:10967C0065005F5A4E5373433145524B5373005F31
:10968C005A54564E31305F5F637878616269763137
:10969C0032305F5F73695F636C6173735F74797091
:1096AC00655F696E666F45005F5A4E4B5373386346
:1096BC00617061636974794576005F5A4E4B5373E0
:1096CC003466696E6445636A006C69626D2E736FF3
:1096DC002E36006C69626763635F732E736F2E3175
:1096EC00005F5F61656162695F6C6469766D6F6470
:1096FC00005F5F61656162695F6C6D756C005F5FD7
:10970C0061656162695F756E77696E645F637070C5
:10971C005F707230005F5F61656162695F756E7763
:10972C00696E645F6370705F707231006C69626344
:10973C002E736F2E360072656164646972007374E7
:10974C00726E636D7000636C6F7365646972007028
:10975C007468726561645F6D757465785F6C6F6356
:10976C006B005F5F6572726E6F5F6C6F63617469C3
:10977C006F6E006D656D636D7000707468726561FD
:10978C00645F6D757465785F756E6C6F636B006F7D
:10979C0070656E6469720073797374656D00636CC7
:1097AC006F7365006F70656E006D656D6D6F7665BE
:1097BC00005F5F6C6962635F73746172745F6D618B
:1097CC00696E004743435F332E3500474C49424393
:1097DC005F322E34004358584142495F41524D5F2D
:1097EC00312E332E3300474C49424358585F332EA9
:1097FC00342E313400474C49424358585F332E3491
:10980C002E313800474C49424358585F332E342E82
:10981C003133004358584142495F312E3300474C95
:10982C0049424358585F332E342E313500474C494A
:10983C00424358585F332E3400474C4942435858E2
:08984C005F332E342E31310090
:1098540000000200030004000400040003000400EC
:1098640004000500060003000300010003000500D6
:1098740005000700020004000400000000000200CC
:1098840004000400020004000700040003000400B4
:109894000400080004000400070004000400090098
:1098A400040004000600000004000400040000009A
:1098B4000400040003000700070004000300020082
:1098C4000400040004000A0004000400040006006C
:1098D4000700040003000400030004000400070060
:1098E4000400040004000700040007000000030053
:1098F4000B00040004000700040007000400040037
:10990400040004000700040004000700070004002A
:10991400020003000400070004000A000800040019
:0C99240003000500040004000300040020
:1099300001000100530B0000100000002000000097
:109940005526790B00000500430C000000000000C4
:1099500001000100AC0B000010000000200000001E
:109960001469690D000003004B0C000000000000AA
:1099700001000800010000001000000000000000CD
:10998000A3AF490800000B00550C000010000000B8
:1099900064F8970200000A00660C00001000000046
:1099A00068F8970200000900750C00001000000024
:1099B00063F8970200000800840C0000100000000B
:1099C000D3AF6B0500000700930C000010000000EF
:1099D00065F89702000006009E0C000010000000D1
:1099E0007429920800000400AD0C00001000000073
:1099F00061F8970200000200B90C000000000000AE
:109A0000DC07020015150000E80702001401000041
:109A1000F8070200141200001008020014330000BE
:109A200040080200143C0000D00802001447000067
:089A30000009020014530000BC
:109A38005C06020016020000600602001603000021
:109A480064060200160400006806020016050000FD
:109A58006C060200160600007006020016070000D9
:109A680074060200160800007806020016090000B5
:109A78007C060200160A000080060200160B000091
:109A880084060200160C000088060200160E00006C
:109A98008C06020016100000900602001611000045
:109AA800940602001613000098060200161400001F
:109AB8009C06020016150000A006020016170000FA
:109AC800A406020016180000A806020016190000D5
:109AD800AC060200161A0000B0060200161B0000B1
:109AE800B4060200161C0000B8060200161D00008D
:109AF800BC060200161E0000C0060200161F000069
:109B0800C406020016200000C80602001621000044
:109B1800CC06020016220000D00602001623000020
:109B2800D406020016240000D806020016250000FC
:109B3800DC06020016260000E006020016270000D8
:109B4800E406020016280000E806020016290000B4
:109B5800EC060200162A0000F0060200162C00008F
:109B6800F4060200162D0000F8060200162E00006A
:109B7800FC06020016300000000702001631000043
:109B8800040702001632000008070200163400001D
:109B98000C070200163500001007020016360000F8
:109BA80014070200163700001807020016380000D4
:109BB8001C0702001639000020070200163A0000B0
:109BC80024070200163B000028070200163D00008B
:109BD8002C070200163E000030070200163F000066
:109BE8003407020016400000380702001641000042
:109BF8003C0702001642000040070200164300001E
:109C080044070200164400004807020016450000F9
:109C18004C070200164600005007020016480000D4
:109C2800540702001649000058070200164A0000AF
:109C38005C070200164B000060070200164C00008B
:109C480064070200164D000068070200164F000066
:109C58006C07020016500000700702001651000041
:109C6800740702001652000078070200165400001C
:109C78007C070200165500008007020016560000F7
:109C880084070200165700008807020016580000D3
:109C98008C0702001659000090070200165A0000AF
:109CA80094070200165B000098070200165C00008B
:109CB8009C070200165D0000A0070200165E000067
:109CC800A4070200165F0000A80702001660000043
:109CD800AC07020016610000B0070200166200001F
:109CE800B407020016630000B807020016640000FB
:109CF800BC07020016650000C007020016660000D7
:109D0800C407020016670000C807020016680000B2
:109D1800CC070200166A0000D0070200166B00008C
:109D2800D4070200166C0000D8070200166D000068
:0C9D380008402DE98C0100EB0880BDE81C
:109D440004E02DE504E09FE50EE08FE008F0BEE5B9
:109D5400FC6801007847C04600C68FE216CA8CE250
:109D6400F8F8BCE57847C04600C68FE216CA8CE214
:109D7400ECF8BCE57847C04600C68FE216CA8CE210
:109D8400E0F8BCE57847C04600C68FE216CA8CE20C
:109D9400D4F8BCE500C68FE216CA8CE2CCF8BCE568
:109DA4007847C04600C68FE216CA8CE2C0F8BCE50C
:109DB4007847C04600C68FE216CA8CE2B4F8BCE508
:109DC4007847C04600C68FE216CA8CE2A8F8BCE504
:109DD4007847C04600C68FE216CA8CE29CF8BCE500
:109DE4007847C04600C68FE216CA8CE290F8BCE5FC
:109DF4007847C04600C68FE216CA8CE284F8BCE5F8
:109E040000C68FE216CA8CE27CF8BCE57847C046EF
:109E140000C68FE216CA8CE270F8BCE57847C046EB
:109E240000C68FE216CA8CE264F8BCE57847C046E7
:109E340000C68FE216CA8CE258F8BCE57847C046E3
:109E440000C68FE216CA8CE24CF8BCE500C68FE26D
:109E540016CA8CE244F8BCE57847C04600C68FE2D7
:109E640016CA8CE238F8BCE57847C04600C68FE2D3
:109E740016CA8CE22CF8BCE57847C04600C68FE2CF
:109E840016CA8CE220F8BCE57847C04600C68FE2CB
:109E940016CA8CE214F8BCE57847C04600C68FE2C7
:109EA40016CA8CE208F8BCE57847C04600C68FE2C3
:109EB40016CA8CE2FCF7BCE57847C04600C68FE2C0
:109EC40016CA8CE2F0F7BCE57847C04600C68FE2BC
:109ED40016CA8CE2E4F7BCE57847C04600C68FE2B8
:109EE40016CA8CE2D8F7BCE57847C04600C68FE2B4
:109EF40016CA8CE2CCF7BCE57847C04600C68FE2B0
:109F040016CA8CE2C0F7BCE57847C04600C68FE2AB
:109F140016CA8CE2B4F7BCE57847C04600C68FE2A7
:109F240016CA8CE2A8F7BCE57847C04600C68FE2A3
:109F340016CA8CE29CF7BCE57847C04600C68FE29F
:109F440016CA8CE290F7BCE57847C04600C68FE29B
:109F540016CA8CE284F7BCE57847C04600C68FE297
:109F640016CA8CE278F7BCE57847C04600C68FE293
:109F740016CA8CE26CF7BCE500C68FE216CA8CE206
:109F840064F7BCE57847C04600C68FE216CA8CE287
:109F940058F7BCE57847C04600C68FE216CA8CE283
:109FA4004CF7BCE57847C04600C68FE216CA8CE27F
:109FB40040F7BCE57847C04600C68FE216CA8CE27B
:109FC40034F7BCE57847C04600C68FE216CA8CE277
:109FD40028F7BCE57847C04600C68FE216CA8CE273
:109FE4001CF7BCE57847C04600C68FE216CA8CE26F
:109FF40010F7BCE57847C04600C68FE216CA8CE26B
:10A0040004F7BCE57847C04600C68FE216CA8CE266
:10A01400F8F6BCE57847C04600C68FE216CA8CE263
:10A02400ECF6BCE500C68FE216CA8CE2E4F6BCE5A9
:10A034007847C04600C68FE216CA8CE2D8F6BCE563
:10A044007847C04600C68FE216CA8CE2CCF6BCE55F
:10A054007847C04600C68FE216CA8CE2C0F6BCE55B
:10A064007847C04600C68FE216CA8CE2B4F6BCE557
:10A074007847C04600C68FE216CA8CE2A8F6BCE553
:10A084007847C04600C68FE216CA8CE29CF6BCE54F
:10A094007847C04600C68FE216CA8CE290F6BCE54B
:10A0A40000C68FE216CA8CE288F6BCE57847C04643
:10A0B40000C68FE216CA8CE27CF6BCE57847C0463F
:10A0C40000C68FE216CA8CE270F6BCE57847C0463B
:10A0D40000C68FE216CA8CE264F6BCE57847C04637
:10A0E40000C68FE216CA8CE258F6BCE57847C04633
:10A0F40000C68FE216CA8CE24CF6BCE57847C0462F
:10A1040000C68FE216CA8CE240F6BCE57847C0462A
:10A1140000C68FE216CA8CE234F6BCE57847C04626
:10A1240000C68FE216CA8CE228F6BCE57847C04622
:10A1340000C68FE216CA8CE21CF6BCE57847C0461E
:10A1440000C68FE216CA8CE210F6BCE57847C0461A
:10A1540000C68FE216CA8CE204F6BCE57847C04616
:10A1640000C68FE216CA8CE2F8F5BCE57847C04613
:10A1740000C68FE216CA8CE2ECF5BCE57847C0460F
:10A1840000C68FE216CA8CE2E0F5BCE57847C0460B
:10A1940000C68FE216CA8CE2D4F5BCE57847C04607
:10A1A40000C68FE216CA8CE2C8F5BCE57847C04603
:10A1B40000C68FE216CA8CE2BCF5BCE57847C046FF
:10A1C40000C68FE216CA8CE2B0F5BCE57847C046FB
:10A1D40000C68FE216CA8CE2A4F5BCE57847C046F7
:10A1E40000C68FE216CA8CE298F5BCE57847C046F3
:10A1F40000C68FE216CA8CE28CF5BCE57847C046EF
:10A2040000C68FE216CA8CE280F5BCE57847C046EA
:10A2140000C68FE216CA8CE274F5BCE57847C046E6
:10A2240000C68FE216CA8CE268F5BCE500C68FE270
:10A2340016CA8CE260F5BCE57847C04600C68FE2DA
:10A2440016CA8CE254F5BCE57847C04600C68FE2D6
:10A2540016CA8CE248F5BCE57847C04600C68FE2D2
:10A2640016CA8CE23CF5BCE57847C04600C68FE2CE
:10A2740016CA8CE230F5BCE57847C04600C68FE2CA
:10A2840016CA8CE224F5BCE57847C04600C68FE2C6
:10A2940016CA8CE218F5BCE500C68FE216CA8CE239
:10A2A40010F5BCE57847C04600C68FE216CA8CE2BA
:10A2B40004F5BCE57847C04600C68FE216CA8CE2B6
:10A2C400F8F4BCE57847C04600C68FE216CA8CE2B3
:10A2D400ECF4BCE57847C04600C68FE216CA8CE2AF
:10A2E400E0F4BCE57847C04600C68FE216CA8CE2AB
:10A2F400D4F4BCE57847C04600C68FE216CA8CE2A7
:10A30400C8F4BCE57847C04600C68FE216CA8CE2A2
:10A31400BCF4BCE57847C04600C68FE216CA8CE29E
:10A32400B0F4BCE57847C04600C68FE216CA8CE29A
:04A33400A4F4BCE5EC
:10A3380000B0A0E300E0A0E304109DE40D20A0E13C
:10A3480004202DE504002DE510C09FE504C02DE58F
:10A358000C009FE50C309FE5A7FEFFEB8BFEFFEBA3
:10A368003C4901001D350100D848010014309FE523
:10A3780014209FE503308FE0022093E7000052E3AA
:10A388001EFF2F01AFFEFFEACC6201008C01000026
:10A3980008402DE920009FE520309FE5033060E06C
:10A3A800060053E30880BD9814309FE5000053E38E
:10A3B8000880BD0833FF2FE10880BDE8E4070200EC
:10A3C800E70702000000000008402DE928009FE58B
:10A3D80028309FE5033060E04331A0E1A33F83E0EC
:10A3E800C310B0E10880BD0814209FE5000052E3C7
:10A3F8000880BD0832FF2FE10880BDE8E4070200AD
:10A40800E40702000000000010402DE918409FE515
:10A418000030D4E5000053E31080BD18DBFFFFEBEC
:10A428000130A0E30030C4E51080BDE82C0902002B
:10A4380024009FE508402DE9003090E5000053E333
:10A448000300000A14309FE5000053E30000000AEF
:10A4580033FF2FE10840BDE8DAFFFFEA4C050200B0
:10A468000000000080B582B000AF78607B68181CDF
:10A47800FFF7A6FD031C012253401B061B0E181CE8
:10A48800BD4602B080BDC04680B582B000AF7860DE
:10A498007B68181C00F0D4FA7B68181CBD4602B013
:10A4A80080BDC04680B582B000AF78607B68181C5C
:10A4B800FFF77EFD7B68181CBD4602B080BDC04614
:10A4C80090B585B000AF786039607C683B1C0C3370
:10A4D800181CFFF7D7FE391C0831164A3B1C0C33F1
:10A4E800081C111C1A1CFFF7B1FD3A1C08323B6806
:10A4F800201C111C1A1C01F053FC3B1C0833181CAF
:10A50800FFF756FD3B1C0C33181CFFF71DFE7B683C
:10A518000CE03B1C0833181CFFF74AFDFFE73B1C07
:10A528000C33181CFFF710FEFFF7FCFC181CBD4687
:10A5380005B090BD6849010090B585B000AF78605E
:10A5480039603C683B1C0C33181CFFF79BFE391C18
:10A558000831164A3B1C0C33081C111C1A1CFFF747
:10A5680075FD7A683B1C0833101C211C1A1C00233B
:10A5780001F0D0FD3B1C0833181CFFF719FD3B1CEC
:10A588000C33181CFFF7E0FD0CE03B1C0833181CCB
:10A59800FFF70EFDFFE73B1C0C33181CFFF7D4FD3B
:10A5A800FFF7C0FC7868BD4605B090BD8049010042
:10A5B80080B584B000AF78603B1C0C33181CFFF7E3
:10A5C80061FE391C0831154A3B1C0C33081C111C50
:10A5D8001A1CFFF73BFD7A683B1C0833101C191C3A
:10A5E800FFF76EFF3B1C0833181CFFF7E1FC3B1C10
:10A5F8000C33181CFFF7A8FD0CE03B1C0833181C93
:10A60800FFF7D6FCFFE73B1C0C33181CFFF79CFD3B
:10A61800FFF788FCBD4604B080BDC046A8490100CC
:10A6280080B584B000AF78603B1C0C33181CFFF772
:10A6380029FE391C0831154A3B1C0C33081C111C17
:10A648001A1CFFF703FD7A683B1C0833101C191C01
:10A65800FFF736FF3B1C0833181CFFF7A9FC3B1C0F
:10A668000C33181CFFF770FD0CE03B1C0833181C5A
:10A67800FFF79EFCFFE73B1C0C33181CFFF764FD3B
:10A68800FFF750FCBD4604B080BDC046BC49010080
:10A6980090B583B000AF786039603B685C681B6830
:10A6A8007A68136054607B68181CBD4603B090BD7F
:10A6B80090B583B000AF786039603B685C681B6810
:10A6C8007A68136054607B68181CBD4603B090BD5F
:10A6D80090B583B000AF78607B685C681B68181C15
:10A6E800211CBD4603B090BD80B582B000AF786034
:10A6F8007B68181CFFF7D6FE7B68181CBD4602B0A5
:10A7080080BDC04680B582B000AF78607B68181CF9
:10A71800FFF7EAFF7B68181CBD4602B080BDC04643
:10A7280090B587B000AF78607B68474A1A607B684D
:10A738001C1D3A1C0832454B101C191CFFF702FC63
:10A748003B1C0833201C191C02F00AF83B1C083378
:10A75800181CFFF72DFC7B681C1C0C343A1C0C32AF
:10A768003B4B101C191CFFF7EDFB3B1C0C33201C4A
:10A77800191C01F0F5FF3B1C0C33181CFFF718FCE3
:10A788007B681C1C14343A1C1032324B101C191CE8
:10A79800FFF7D8FB3B1C1033201C191C01F0E0FF0D
:10A7A8003B1C1033181CFFF703FC7B681C1C1C3473
:10A7B8003A1C1432284B101C191CFFF7C3FB3B1C16
:10A7C8001433201C191C01F0CBFF3B1C1433181C3C
:10A7D800FFF7EEFB7B6800225A627A682823002183
:10A7E800D1547B682BE03B1C0833181CFFF7E0FBB7
:10A7F800FFF798FB3B1C0C33181CFFF7D9FB17E03D
:10A808003B1C1033181CFFF7D3FB0BE03B1C143325
:10A81800181CFFF7CDFBFFE77B681433181CFFF704
:10A8280071FFFFE77B680C33181CFFF76BFFFFE72E
:10A838007B680433181CFFF765FFFFF773FB181CD0
:10A84800BD4607B090BDC046184A0100480902003D
:10A858004C090200500902005409020080B582B078
:10A8680000AF78607B68134A1A607B68181C00F098
:10A87800B3F87B681C33181CFFF744FF7B6814335C
:10A88800181CFFF73FFF7B680C33181CFFF73AFFD3
:10A898007B680433181CFFF735FF0023002B03D017
:10A8A8007B68181CFFF7E6FA7B68181CBD4602B0E7
:10A8B80080BDC046184A010080B582B000AF7860FC
:10A8C8007B68181CFFF7CAFF7B68181CFFF7D2FAD1
:10A8D8007B68181CBD4602B080BDC04690B583B0E9
:10A8E80000AF786039603A681268131CD217141CDC
:10A8F8007A68136054607B68181CBD4603B090BD2D
:10A9080090B58FB000AF78607B680433181CFFF7F0
:10A9180087FE7B680433181CFFF74AFE0EE00A2303
:10A928007B613A1C08323B1C1433101C191CFFF7BE
:10A93800D5FF3B1C0833181C00F0CAF97B680433A8
:10A948003A1C1832101C191CFFF7F6FD3B1C343357
:10A95800181CFFF797FC391C30311E4A3B1C343356
:10A96800081C111C1A1CFFF771FB3A1C18323B1CFF
:10A978003033101C191C00F07BF8031C5A1E93413D
:10A988001B061C0E3B1C3033181CFFF711FB3B1C2D
:10A998003433181CFFF7D8FB3B1C1833181CFFF77F
:10A9A80073FD002CBBD111E03B1C3033181CFFF7A2
:10A9B800FFFAFFE73B1C3433181CFFF7C5FB3B1CB1
:10A9C8001833181CFFF760FDFFF7ACFABD460FB04F
:10A9D80090BDC046C449010080B582B000AF786020
:10A9E8007B680433181CFFF73DFD031C002B04D0C3
:10A9F8007B680433181CFFF713FE7B6800225A6239
:10AA0800BD4602B080BDC04680B582B000AF786058
:10AA18007B680433181CFFF725FD031C181CBD4672
:10AA280002B080BD80B582B000AF78607B68181C2A
:10AA380000F078F97B68181CBD4602B080BDC0469E
:10AA480080B582B000AF78607B68181C00F09CF974
:10AA5800031C7A68101C191C00F072F97B68181C1A
:10AA6800FFF7E0FF7B68181CBD4602B080BDC046FA
:10AA780080B584B000AF786039607A683B68101C94
:10AA8800191C00F09DF9031CBB607B68181C00F0C2
:10AA980085F9031CFB603A1C08323B1C0C33101C64
:10AAA800191C00F0D3F9031C002B01D0002300E08F
:10AAB8000123181CBD4604B080BDC04690B583B0C4
:10AAC80000AF78607B685C681B68181C211CBD4659
:10AAD80003B090BD0000000090B585B000AF78606D
:10AAE80039603B68181CFFF7E9FF031C0C1C181C95
:10AAF800211C0A4B084AFFF787F9031C0C1CBB6092
:10AB0800FC607A683B1C0833101C191CFFF7D0FD49
:10AB18007868BD4605B090BDE8030000000000005D
:10AB280080B582B000AF786039607A683B68101CE5
:10AB3800191CFFF7D1FF7868BD4602B080BDC0463A
:10AB480090B583B000AF786039603B685C681B687B
:10AB58007A68136054607B68181CBD4603B090BDCA
:10AB680090B585B000AF786039603B68181CFFF776
:10AB7800AFFD031C0C1C181C211C0A4B084AFFF7CC
:10AB88001DF9031C0C1CBB60FC607A683B1C083375
:10AB9800101C191CFFF7D4FF7868BD4605B090BD9E
:10ABA800E80300000000000080B582B000AF7860C4
:10ABB80039607A683B68101C191CFFF7D1FF786868
:10ABC800BD4602B080BDC04690B585B000AF786084
:10ABD80039603A1C08323B68101C191CFFF7E4FF67
:10ABE8003B1C0833181CFFF769FF031C0C1C7A6810
:10ABF800136054607B68181CBD4605B090BDC04604
:10AC0800F0B58BB000AFF860B9607A60BB685C687B
:10AC18001B68BB61FC613B1C1833181CFFF74EFF17
:10AC2800051C0E1C3A1C20327B68101C191CFFF7EF
:10AC3800CBFF3B1C2033181CFFF740FF031C0C1CE8
:10AC4800291C321CC91AA2410B1C141C3B617C61D3
:10AC5800FA683B1C1033101C191CFFF771FFF868C9
:10AC6800BD460BB0F0BDC04690B585B000AF78606A
:10AC780039603B68181CFFF721FF031C0C1C181CCB
:10AC8800211C0A4B084AFFF799F8031C0C1CBB60EF
:10AC9800FC607A683B1C0833101C191CFFF7F8FC91
:10ACA8007868BD4605B090BD40420F000000000026
:10ACB80080B582B000AF786039607A683B68101C54
:10ACC800191CFFF7D1FF7868BD4602B080BDC046A9
:10ACD80090B589B000AF78603A1C10327B68101CC0
:10ACE800191CFFF71DFF391C18317A683B1C1033FB
:10ACF800081C111C1A1CFFF783FF3A1C08323B1C66
:10AD08001833101C191CFFF7D3FF39697A69BB681F
:10AD1800FC68081C111C1A1C231CFFF71BF9BD46F4
:10AD280009B090BD80B582B000AF78607B68181C10
:10AD380000F09EF87B68181CBD4602B080BDC04676
:10AD480080B584B000AF7860396017E03B68181CA4
:10AD580000F098F8031C7A68101C191CFFF7F0FF24
:10AD68003B68181C00F098F8031CFB607A683B6885
:10AD7800101C191C00F09AF8FB683B603B68002B1C
:10AD8800E4D1BD4604B080BD80B582B000AF786024
:10AD98007B689B68181CBD4602B080BD80B584B036
:10ADA80000AF78607B6804333A1C0C32101C191C05
:10ADB80000F09EF8FB68181CBD4604B080BDC04674
:10ADC80090B585B000AF786039607B68181C00F0DA
:10ADD8009DF8041C7B68181C00F0A2F8021C796816
:10ADE8003B68081C211C00F0A5F8031CBB607B68AD
:10ADF800181CFFF7D3FF031CFB603A1C08323B1CEE
:10AE08000C33101C191C00F021F8031C002B0ED168
:10AE18007C68BB68181C00F0C5F8031C3A68201C45
:10AE2800111C1A1C00F0D2F8031C002B05D07B68FB
:10AE3800181CFFF7B3FF031C04E0BB6802E0C04620
:10AE4800FFF770F8181CBD4605B090BD80B582B0FC
:10AE580000AF786039607B681A683B681B68D31A52
:10AE68005A4253411B061B0E181CBD4602B080BD3A
:10AE780080B582B000AF78607B68181CBD4602B010
:10AE880080BDC04680B582B000AF78607B68DB6863
:10AE9800181CBD4602B080BD80B582B000AF786096
:10AEA8007B689B68181CBD4602B080BD80B582B027
:10AEB80000AF786039607B68181C00F00FF8021C3E
:10AEC8003B68101C191C00F0A1F87A683B68101C3C
:10AED800191C00F0A7F8BD4602B080BD80B582B04D
:10AEE80000AF78607B68181CBD4602B080BDC046C4
:10AEF80080B582B000AF786039607B683A681A60C4
:10AF08007B68181CBD4602B080BDC04680B582B0C3
:10AF180000AF78607B689B68181CBD4602B080BD96
:10AF280080B582B000AF78607B680433181CBD46DA
:10AF380002B080BD90B587B000AFF860B9607A60A4
:10AF48003B6020E0FC68BB68181C00F07BF8021C22
:10AF58003B68201C111C1A1C00F038F8031C012245
:10AF680053401B061B0E08D0BB687B60BB68181CCF
:10AF780000F07CF8031CBB6005E0BB68181C00F0FF
:10AF88007FF8031CBB60BB68002BDBD13A1C143272
:10AF98007B68101C191CFFF7ABFF7B69181CBD46AA
:10AFA80007B090BD80B584B000AF78607B68181C8E
:10AFB80000F070F8031C3A1C0C32101C191C00F02D
:10AFC80073F8031C181CBD4604B080BD80B584B05E
:10AFD80000AFF860B9607A60BA687B68101C191C09
:10AFE80000F06CF8031C181CBD4604B080BDC046B8
:10AFF80080B582B000AF78607B681033181CFEF70C
:10B00800D7FF7B68181CBD4602B080BD80B582B0F2
:10B0180000AF786039603B68181CFFF7E9FFBD4650
:10B0280002B080BD80B582B000AF786039607A68C0
:10B038003B68101C191C012200F054F8BD4602B0F0
:10B0480080BDC04680B584B000AF78607B68181CAE
:10B0580000F056F8031C3A1C0C32101C191C00F0A6
:10B0680023F8031C181CBD4604B080BD80B582B00F
:10B0780000AF78607B689B68181CBD4602B080BD35
:10B0880080B582B000AF78607B68DB68181CBD466D
:10B0980002B080BD80B582B000AF78607B681033A5
:10B0A800181CBD4602B080BD80B582B000AF786084
:10B0B80039603B68181CBD4602B080BD80B582B0BF
:10B0C80000AF786039607A683B68101C191CFEF77D
:10B0D80031FF031CDB0F1B061B0E181CBD4602B0FC
:10B0E80080BDC04680B584B000AFF860B9607A60B2
:10B0F800BB68181CFEF7BEFEBD4604B080BDC04646
:10B1080080B582B000AF78607B681033181CBD46EC
:10B1180002B080BD80B58AB000AF786039607B68C6
:10B12800012B00D039E13A689D4B9A4200D034E1B6
:10B138009C4B181CFEF724FE9A499B4A9B4B081C03
:10B14800111C1A1CFFF718F8994B181CFEF718FE6B
:10B158009749954A954B081C111C1A1CFFF70CF8C7
:10B168003B1C0833181CFFF78DF89249924A3B1C88
:10B178000833081C111C1A1CFEF768FF3B1C083317
:10B18800181CFEF7E1FF8B49874A884B081C111CE5
:10B198001A1CFEF7F1FF3B1C0C33181CFFF772F862
:10B1A8008649874A3B1C0C33081C111C1A1CFEF7E5
:10B1B8004DFF3B1C0C33181CFEF7C6FF7F497A4A2B
:10B1C8007A4B081C111C1A1CFEF7D6FF3B1C1033C7
:10B1D800181CFFF757F87B497B4A3B1C1033081CA7
:10B1E800111C1A1CFEF732FF3B1C1033181CFEF70B
:10B1F800ABFF74496C4A6D4B081C111C1A1CFEF7F6
:10B20800BBFF3B1C1433181CFFF73CF86F49704A0E
:10B218003B1C1433081C111C1A1CFEF717FF3B1C9F
:10B228001433181CFEF790FF68495F4A5F4B081CEF
:10B23800111C1A1CFEF7A0FF3B1C1833181CFFF743
:10B2480021F86449644A3B1C1833081C111C1A1C59
:10B25800FEF7FCFE3B1C1833181CFEF775FF5D4912
:10B26800514A524B081C111C1A1CFEF785FF3B1C47
:10B278001C33181CFFF706F85849594A3B1C1C3365
:10B28800081C111C1A1CFEF7E1FE3B1C1C33181C81
:10B29800FEF75AFF5149444A444B081C111C1A1C1A
:10B2A800FEF76AFF3B1C2033181CFEF7EBFF4D49E5
:10B2B8004D4A3B1C2033081C111C1A1CFEF7C6FE05
:10B2C8003B1C2033181CFEF73FFF4649364A374BD4
:10B2D800081C111C1A1CFEF74FFF3B1C2433181CBA
:10B2E800FEF7D0FF4149424A3B1C2433081C111C7D
:10B2F8001A1CFEF7ABFE3B1C2433181CFEF724FF78
:10B308003A49294A294B081C111C1A1CFEF734FF1C
:10B31800384B181CFEF7DEFD3649374A234B081C0C
:10B32800111C1A1CFEF728FF37E03B1C0833181CB9
:10B33800FEF70AFFFEF7F6FD3B1C0C33181CFEF760
:10B3480003FFFEF7EFFD3B1C1033181CFEF7FCFE55
:10B35800FEF7E8FD3B1C1433181CFEF7F5FEFEF75C
:10B36800E1FD3B1C1833181CFEF7EEFEFEF7DAFD74
:10B378003B1C1C33181CFEF7E7FEFEF7D3FD3B1CF5
:10B388002033181CFEF7E0FEFEF7CCFD3B1C2433EF
:10B39800181CFEF7D9FEFEF7C5FDBD460AB080BDF4
:10B3A800FFFF000030090200BC9F0000E007020018
:10B3B8003409020038090200DC4901003C09020096
:10B3C800E049010040090200E44901004409020083
:10B3D800E849010048090200EC4901004C09020053
:10B3E800F449010050090200FC4901005409020017
:10B3F800044A0100580902007C9F000080B500AF94
:10B40800034B0120191CFFF785FEBD4680BDC046D1
:10B41800FFFF000080B582B000AF786039603B68FC
:10B42800181CBD4602B080BD80B582B000AF786000
:10B438003960BD4602B080BD80B582B000AF78608B
:10B4480002E07B689B687B607B689B68002BF8D177
:10B458007B68181CBD4602B080BDC04680B582B06E
:10B4680000AF786002E07B68DB687B607B68DB6844
:10B47800002BF8D17B68181CBD4602B080BDC046C1
:10B4880080B584B000AFF860B9607A60F968BA68CE
:10B498007B68081C111C1A1CFEF7A8FC031C181C4E
:10B4A800BD4604B080BDC04680B500AF034B5A1EF0
:10B4B80093411B061B0E181CBD4680BD00000000F2
:10B4C80080B582B000AF7860FFF7EEFF031C5A1E0C
:10B4D80093411B061B0E05D07B68181CFEF798FDD0
:10B4E800031C00E00023181CBD4602B080BDC04606
:10B4F80080B582B000AF7860FFF7D6FF031C5A1EF4
:10B5080093411B061B0E05D07B68181CFEF768FDCF
:10B51800031C00E00023181CBD4602B080BDC046D5
:10B5280080B582B000AF786039603B687A68101CDB
:10B53800191C09F009FA031C181CBD4602B080BD8D
:10B5480080B584B000AF786039607B681B68FB60A9
:10B558007B681A683B68D2187B681A60FB68181CFD
:10B56800BD4604B080BDC04680B582B000AF7860EB
:10B578003960FFF799FF031C5A1E93411B061B0EE7
:10B5880007D07A683B68101C191CFFF7C9FF031C19
:10B5980006E07A683B68101C191CFFF7D1FF031CF2
:10B5A800181CBD4602B080BD80B582B000AF78607F
:10B5B8007B6800229A607B68181CBD4602B080BD7B
:10B5C80080B582B000AF78607B689B68002B07D09D
:10B5D8007B689B6879687A68081C111C0322984765
:10B5E8007B68181CBD4602B080BDC04680B582B0DD
:10B5F80000AF78607B6800221A607B6800225A607E
:10B608007B6800229A607B680022DA607B680022EF
:10B618001A617B6800225A617B68181CBD4602B01B
:10B6280080BDC04680B582B000AF78607B68181CCA
:10B63800FEF7A6FB7B68012252425A607B68181C01
:10B64800BD4602B080BDC04680B582B000AF78600C
:10B6580039607A683B681343181CBD4602B080BD48
:10B6680080B584B000AFF860B9607A60FB68BA68EA
:10B678001A60FB687A685A60FB68181CBD4604B0FB
:10B6880080BDC04680B582B000AF78607B681B681B
:10B69800181CBD4602B080BD80B582B000AF78608E
:10B6A8007B685B68181CBD4602B080BDB0B582B02F
:10B6B80000AF786039603B68181CFFF7EDFF041C89
:10B6C80023680C331D683B68181CFFF7DBFF031C5D
:10B6D8007A68101C211C1A1CA8477868BD4602B05D
:10B6E800B0BDC04680B582B000AF78603960FEF763
:10B6F800B9FD031C79683A68081C111C1A1CFFF76D
:10B70800AFFF7868BD4602B080BDC04690B587B02F
:10B7180000AFF8603B1D19605A60FC683A1C14328F
:10B728003B1D101C191CFFF7C1FF3B1C1433201CC8
:10B73800191CFEF781FB3B1C1433181CFEF738FC60
:10B74800FB680A4A1A60FB683A1D083303CA03C338
:10B75800FB6806E03B1C1433181CFEF729FCFEF7B7
:10B76800E1FB181CBD4607B090BDC04600080200AA
:10B7780090B589B000AFF860381D016042603B6049
:10B78800FC68391C18313A68264B081C111C1A1C15
:10B7980001F05EFA3A1C1C323B1D101C191CFFF705
:10B7A80085FF391C14313A1C18323B1C1C33081C09
:10B7B800111C1A1C01F074FA3B1C1433201C191CB0
:10B7C800FEF73AFB3B1C1433181CFEF7F1FB3B1C3D
:10B7D8001C33181CFEF7ECFB3B1C1833181CFEF737
:10B7E800E7FBFB68104A1A60FB683A1D083303CA76
:10B7F80003C3FB6812E03B1C1433181CFEF7D8FB8C
:10B80800FFE73B1C1C33181CFEF7D2FBFFE73B1C71
:10B818001833181CFEF7CCFBFEF784FB181CBD463A
:10B8280009B090BDC84A01000008020080B584B084
:10B8380000AF78607B68181CFFF742FE031CFB60B2
:10B84800FB68002B03D0FB68181CFEF703FBBD4602
:10B8580004B080BD80B582B000AF78607B68181CEA
:10B86800FFF746FEBD4602B080BDC04690B585B024
:10B8780000AF78603A1C0832254B101C191C01F0E7
:10B88800B5FA244A7B68101C191C01F0CFFA031C76
:10B89800FB60FB68181CFEF77FFC031C0122534069
:10B8A8001B061B0E16D0FB68181CFEF7F3FA031CC8
:10B8B800181C00210022FEF717FC10202021FFF79A
:10B8C800C3FE031CF9687A68081C111C1A1CFEF7D1
:10B8D80011FB09E0FB681B680C3B1B68FA68D3186E
:10B8E800181C0021FEF760FCFC683B1C0833181C80
:10B8F80001F08EFA231C06E03B1C0833181C01F0EB
:10B9080087FAFEF70FFB181CBD4605B090BDC04670
:10B91800A00902009409020090B587B002AF7860D0
:10B928003A1C0832214B101C191C01F05FFA204AFE
:10B938007B68101C191C01F0CFFA031CFB60FB6824
:10B94800181CFEF7EDFC031C012253401B061B0EBE
:10B9580007D0FA687B68101C191C0822FEF7B0FC97
:10B9680011E0FB681B680C3B1B68FA68D318181CAD
:10B978000021FEF719FCFB6800220092181C002227
:10B988000023FEF767FCFC683B1C0833181C01F019
:10B998003FFA231C06E03B1C0833181C01F038FA58
:10B9A800FEF7C0FA181CBD4605B090BDB8090200E4
:10B9B8008809020090B595B000AFF860B9607A6068
:10B9C8003B607B68181CFEF7CDFA031CBB64BB68A0
:10B9D800181CFEF747FA031C181CFEF7FFF9031C96
:10B9E8007B647B6C5A1E93411B061B0E00D1DEE064
:10B9F800CCE03B6C1C1C0B347B68181CFEF732FA3D
:10BA0800021CBB6C201C111C1A1CFEF733FC031C07
:10BA18005A4253411B061B0E00D1B7E0FC683B6C31
:10BA28000B33391C2031BA68081C111C1A1C01F090
:10BA38000FF93A1C1C323B1C2033101C191C2F22F6
:10BA480001F0A0FA3B1C1C33201C191CFEF706FB56
:10BA58003B1C1C33181CFEF7ABFA3B1C2033181C8C
:10BA6800FEF7A6FA3B1C4F3301221A703B68FB63B2
:10BA7800FB6B181C01F0A6FA031CBB61FB6B181CBE
:10BA880001F0AEFA031C7B6166E03B1C1833181CFE
:10BA980001F0D8FA031CBB63BB6B7B63BB6B04333D
:10BAA8003B63391C1031FA687B6B081C111C1A1C8B
:10BAB80000F0A4F83B6B181C01F0D0FA031C01221B
:10BAC80053401B061B0E30D03B6B181C01F0D4FAF8
:10BAD800031C7B623B1C2433181C01F0DBFA031C9B
:10BAE800181CFEF76DFA031C012253401B061B0E9F
:10BAF8001BD03A6B3B1C1033101C191C01F0DAFAEE
:10BB0800031CBB623B6B181C01F0E4FA031CFB62CC
:10BB18003A1C28323B1C2C33101C191CFFF796F9D1
:10BB2800031C002B01D0012300E00023002B05D0CB
:10BB38003B1C4F3300221A70002400E001243B1CF8
:10BB48001033181CFEF734FA012C10D1C0463B1CE8
:10BB58001833181C01F064FA3A1C18323B1C1433D1
:10BB6800101C191C01F04AFA031C002B8DD13B1C38
:10BB78004F331B78002B05D07B6C181CFEF7ACFAF2
:10BB8800012336E0FB68181CFEF710F97B6C181CC3
:10BB9800FEF7A6FB031C3B643B6C5A1E93411B0635
:10BBA8001B0E00D025E77B6C181CFEF795FA0023C6
:10BBB8001FE0041C3B1C1C33181CFEF7F9F900E0BD
:10BBC800041C3B1C2033181CFEF7F2F9231C0AE066
:10BBD800031CC0461C1C3B1C1033181CFEF7E8F95C
:10BBE800231C00E0031C181CFEF72CFBFEF70CFBC3
:10BBF800C8E7181CBD4615B090BDC046B0B58EB09C
:10BC080000AFF860B9607A60BB68181CFEF7D8F915
:10BC1800031C002B33D01020FEF78EFA041C3B1CAB
:10BC28001433181C2621FFF75DFD3B1C2033181C1C
:10BC3800FEF728FB391C1C31564A3B1C2033081CD4
:10BC4800111C1A1CFEF702FA3B1C14333D1C1C3550
:10BC5800201C19685A682B1CFFF78AFD3B1C1C33F3
:10BC6800181CFEF7A5F93B1C2033181CFEF76CFACC
:10BC7800494A4A4B201C111C1A1CFEF79DFABA6847
:10BC8800391C24317B68081C111C1A1C08F060FE42
:10BC98003B1C2433181CFFF73FFE031C7B633B1C33
:10BCA8002433181CFEF784F97B6B181CFEF738FB4D
:10BCB800031C002B18D03B1C1033181CFEF760F82F
:10BCC8007A6B3B1C1033101C191CFEF769F9FA68D3
:10BCD8003B1C1033101C191CFEF7EAFA3B1C1033EE
:10BCE800181CFEF765F951E01020FEF725FA041C30
:10BCF8003B1C2833181C1321FFF7F4FCBA68391CC5
:10BD080030317B68081C111C1A1C08F021FE3B1CF2
:10BD180028333D1C3035201C19685A682B1CFFF746
:10BD280027FD3B1C3033181CFEF742F91A4A1B4BFF
:10BD3800201C111C1A1CFEF73FFA3B1C1C33181C54
:10BD4800FEF736F9FFE73B1C2033181CFEF7FCF919
:10BD5800201CFEF701FAFEF7E5F83B1C2433181CFB
:10BD6800FEF726F9FEF7DEF83B1C1033181CFEF729
:10BD78001FF9FEF7D7F83B1C3033181CFEF718F9EB
:10BD8800FFE7201CFEF7E8F9FEF7CCF8F868BD4697
:10BD98000EB0B0BDCC4A0100E807020028A00000A0
:10BDA800B0B590B000AFF860B9607A60FB68181C55
:10BDB800FEF706F9031C002B33D01020FEF7BCF960
:10BDC800041C3B1C1433181C2621FFF78BFC3B1C5E
:10BDD8002033181CFEF756FA391C1C31614A3B1CEB
:10BDE8002033081C111C1A1CFEF730F93B1C1433B5
:10BDF8003D1C1C35201C19685A682B1CFFF7B8FC21
:10BE08003B1C1C33181CFEF7D3F83B1C2033181CB2
:10BE1800FEF79AF9544A554B201C111C1A1CFEF7C0
:10BE2800CBF9FA68391C2431BB68081C111C1A1C90
:10BE380008F08EFD3B1C2433181CFFF717FD031C6C
:10BE4800FB633B1C2433181CFEF7B2F8FB6B181C71
:10BE5800FEF7A2F9031C002B31D0FA6B7B68101C8B
:10BE6800191CFEF759F9031C1A680C3A12689B183A
:10BE7800181CFEF7ADF8031C002B1FD01020FEF78E
:10BE88005BF9041CFEF744FA031C1D68FDF7FAFF72
:10BE9800031C3A1C2832101C291C1A1CFFF7E0FB53
:10BEA8003B1C2833201C19685A68FFF72FFC2E4AC0
:10BEB8002E4B201C111C1A1CFEF77EF94FE0102097
:10BEC800FEF73AF9041C3B1C3033181C1321FFF70A
:10BED80009FCFA68391C3831BB68081C111C1A1C8B
:10BEE80008F036FD3B1C30333D1C3835201C1968E2
:10BEF8005A682B1CFFF73CFC3B1C3833181CFEF718
:10BF080057F8194A194B201C111C1A1CFEF754F932
:10BF18003B1C1C33181CFEF74BF8FFE73B1C203377
:10BF2800181CFEF711F9201CFEF716F9FDF7FAFFA9
:10BF38003B1C2433181CFEF73BF8FDF7F3FF201CCD
:10BF4800FEF70AF9FDF7EEFF3B1C3833181CFEF725
:10BF58002FF8FFE7201CFEF7FFF8FDF7E3FFBD46CB
:10BF680010B0B0BDCC4A0100E807020028A00000CC
:10BF7800B0B58EB000AFF860B9607A60BB68181CC5
:10BF8800FEF71EF8031C002B33D01020FEF7D4F860
:10BF9800041C3B1C1433181C2621FFF7A3FB3B1C75
:10BFA8002033181CFEF76EF9391C1C31564A3B1C0D
:10BFB8002033081C111C1A1CFEF748F83B1C1433CC
:10BFC8003D1C1C35201C19685A682B1CFFF7D0FB38
:10BFD8003B1C1C33181CFDF7EBFF3B1C2033181CC3
:10BFE800FEF7B2F8494A4A4B201C111C1A1CFEF7EE
:10BFF800E3F8BA68391C24317B68081C111C1A1C28
:10C0080008F0A6FC3B1C2433181CFFF785FC031C16
:10C018007B633B1C2433181CFDF7CAFF7B6B181C81
:10C02800FEF77EF9031C002B18D03B1C1033181C9C
:10C03800FDF7A6FE7A6B3B1C1033101C191CFDF78C
:10C04800F3FEFA683B1C1033101C191CFEF730F97C
:10C058003B1C1033181CFDF7ABFF51E01020FEF716
:10C068006BF8041C3B1C2833181C1321FFF73AFB00
:10C07800BA68391C30317B68081C111C1A1C08F07E
:10C0880067FC3B1C28333D1C3035201C19685A6856
:10C098002B1CFFF76DFB3B1C3033181CFDF788FF8A
:10C0A8001A4A1B4B201C111C1A1CFEF785F83B1C56
:10C0B8001C33181CFDF77CFFFFE73B1C2033181CC2
:10C0C800FEF742F8201CFEF747F8FDF72BFF3B1C54
:10C0D8002433181CFDF76CFFFDF724FF3B1C1033BD
:10C0E800181CFDF765FFFDF71DFF3B1C3033181CBE
:10C0F800FDF75EFFFFE7201CFEF72EF8FDF712FFA5
:10C10800F868BD460EB0B0BDCC4A0100E807020091
:10C1180028A0000080B58EB000AFF860B9607A60E2
:10C128003B60391C1431BA687B68081C111C1A1C46
:10C13800FFF71EFFFB68181C00F0F8FF00237B6365
:10C148003B1C1033181CFDF71BFE3A1C14327B6B8A
:10C15800101C20211A1CFDF7C5FE031C3B633B6B1A
:10C1680001331AD03A6B7B6BD31A381C1830391C40
:10C1780014317A6BFDF7A8FF3A1C10323B1C1833B8
:10C18800101C191CFDF76AFF3B1C1833181CFDF71F
:10C198000FFF3B6B01337B6315E0381C1C30391CE7
:10C1A80014317A6B01235B42FDF78EFF3A1C103283
:10C1B8003B1C1C33101C191CFDF750FF3B1C1C3387
:10C1C800181CFDF7F5FE3B1C1033181CFDF7F8FE94
:10C1D800031C012253401B061B0E46D03B1C103388
:10C1E800181CFEF775F8031C3B623B1C2033181C17
:10C1F80000F0AAFF031C1B781B061B165B3B5A4268
:10C2080053411B061B0E26D03B1C1033181CFDF790
:10C21800A9FE031C023B391C24313A1C1032081CAD
:10C22800111C0122FDF750FF3A1C10323B1C24332D
:10C23800101C191CFDF712FF3B1C2433181CFDF7BA
:10C24800B7FE3B68002B06D03A683B1C1033101C25
:10C25800191CFEF74DF8391C2831FA683B1C1033BD
:10C26800081C111C1A1C00F0ABFF3B6B013300D0FB
:10C278006BE7C0463B1C1033181CFDF799FE3B1CAE
:10C288001433181CFDF794FE23E03B1C1833181CCC
:10C29800FDF78EFE0BE03B1C1C33181CFDF788FED7
:10C2A80005E03B1C2433181CFDF782FEFFE73B1C0E
:10C2B8001033181CFDF77CFEFFE7FB68181CFEF71F
:10C2C800E3F8FFE73B1C1433181CFDF771FEFDF77C
:10C2D80029FEF868BD460EB080BDC04680B582B064
:10C2E80000AF78607B68181CBD4602B080BDC046B0
:10C2F800B0B586B000AFF860B9607A60FD68BB6819
:10C30800181CFFF7EBFF041C3B1C1433181CFDF72B
:10C31800B9FF3B1C1433281C211C1A1CFDF796FE80
:10C328003B1C1433181CFDF70FFFFB681A1D7B68B4
:10C33800101C191C00F0E6FFFB680CE03B1C1433D2
:10C34800181CFDF701FFFDF7EDFDFB68181CFDF754
:10C358002FFEFDF7E7FD181CBD4606B0B0BDC04670
:10C3680080B582B000AF78607B680433181CFEF794
:10C378008BF87B68181CFDF71BFE7B68181CBD46F4
:10C3880002B080BD80B582B000AF78607B68181CB1
:10C3980001F05EF87B68181CBD4602B080BDC0463F
:10C3A80080B582B000AF78607B68181CBD4602B0CB
:10C3B80080BDC046B0B586B000AFF860B9607A609D
:10C3C800FD68BB68181CFFF7EBFF041C3B1C14330B
:10C3D800181CFDF757FF3B1C1433281C211C1A1C82
:10C3E800FDF734FE3B1C1433181CFDF7ADFEFB684B
:10C3F8001A1D7B68101C191C00F084FFFB680CE0F8
:10C408003B1C1433181CFDF79FFEFDF78BFDFB68E2
:10C41800181CFDF7CDFDFDF785FD181CBD4606B0BF
:10C42800B0BDC04690B5B5B002AFF860B9607A60EB
:10C43800FB68181CFFF7F6F83A1C8832BB68101C1A
:10C44800191CFDF77FFD3B1C80333A1C88321A60AB
:10C458003B1C803301225A603B1C9033181C00F0AF
:10C46800CDFE3A1C68323B1C80333C1C8C34391C92
:10C4780090310091101C19685A68231C00F002FFC3
:10C48800391C3031764A3B1C6833081C111C1A1CB5
:10C49800FFF72EFF3A1CB4327B68101C191CFDF7FD
:10C4A80051FD3B1CAC333A1CB4321A603B1CAC3314
:10C4B80001225A603B1CBC33181C00F09FFE3A1C3A
:10C4C80094323B1CAC333C1CB834391CBC31009151
:10C4D800101C19685A68231C00F0D4FE3B1C30332A
:10C4E800191C1C315F4A3B1C9433081C111C1A1C74
:10C4F800FFF760FF3B1C28333A1C30321A603B1CA4
:10C50800283302225A603B1CC433181C00F00AFF6F
:10C518003A1C10323B1C28333C1CC034391CC43133
:10C528000091101C19685A68231C00F043FFFA6830
:10C538003B1C1033101C191C00F096F83B1C1033E0
:10C54800181CFFF71FFF3B1CC433181C00F0F8FE33
:10C558003C1C303438343B1C30339C4204D01C3CE7
:10C56800201CFFF7FDFEF6E73B1C9433181CFDF773
:10C578008BFF3B1CBC33181C00F04EFE3C1CB43433
:10C5880004343B1CB4339C4204D0043C201CFDF70B
:10C598000FFDF6E73B1C6833181CFDF775FF3B1CC5
:10C5A8009033181C00F038FE3C1C883404343B1CC3
:10C5B80088339C4205D0C046043C201CFDF7F8FC9B
:10C5C800F5E7C046FB6847E03B1CC433181C00F085
:10C5D800B7FE3C1C303438343B1C30339C4204D00A
:10C5E8001C3C201CFFF7BCFEF6E73B1C9433181CD0
:10C5F800FDF74AFFFFE73B1CBC33181C00F00CFE9C
:10C608003C1CB43404343B1CB4339C4204D0043C7A
:10C61800201CFDF7CDFCF6E73B1C6833181CFDF722
:10C6280033FFFFE73B1C9033181C00F0F5FD3C1C62
:10C63800883404343B1C88339C4206D0C046043CF2
:10C64800201CFDF7B5FCF5E700E0C046FB68181CA8
:10C65800FDF728FFFDF766FC181CBD4633B090BDFA
:10C66800E84A0100584A010080B584B000AF7860FC
:10C678003960334B1A680123134028D1304B181CFA
:10C68800FDF7CAFB031C5A1E93411B061B0E1ED046
:10C698003B1C0833181CFDF7F5FD2A492A4A3B1CA8
:10C6A8000833081C111C1A1CFDF7D0FC244B181C5D
:10C6B800FDF79EFC2349254A254B081C111C1A1C12
:10C6C800FDF75AFD3B1C0833181CFDF73DFD214BB7
:10C6D8001A680123134028D11E4B181CFDF79CFB38
:10C6E800031C5A1E93411B061B0E1ED03B1C0C3309
:10C6F800181CFDF7C7FD1849184A3B1C0C33081CC9
:10C70800111C1A1CFDF7A2FC124B181CFDF770FC3B
:10C7180011490E4A0E4B081C111C1A1CFDF72CFD62
:10C728003B1C0C33181CFDF70FFD786805490A4AB5
:10C738003B68FFF73FF9031C181CBD4604B080BDD9
:10C74800A80A02007C0C0200DC4B0100BC9F000020
:10C75800E0070200AC0A0200800C0200F44B010062
:10C7680090B585B000AF786039607C683A1C0C32AF
:10C778003B68101C191CFDF7E5FB3A1C0C320C4BEE
:10C78800201C111C1A1CFFF74DFE3B1C0C33181CF7
:10C79800FDF70EFC7B6806E03B1C0C33181CFDF70C
:10C7A80007FCFDF7BFFB181CBD4605B090BDC04691
:10C7B800600A020090B58BB000AF786039607B6882
:10C7C800181CFEF72FFF7B6800229A602C4B1A6812
:10C7D8000123134029D12A4B181CFDF71DFB031C0C
:10C7E8005A1E93411B061B0E1FD000243B1C0C3302
:10C7F800181CFDF747FD2349234A3B1C0C33081C32
:10C80800111C1A1CFDF722FC1D4B181CFDF7F0FB30
:10C818001C491E4A1E4B081C111C1A1CFDF7ACFCB7
:10C828003B1C0C33181CFDF78FFC7C683B1C103339
:10C83800181C00F055FE13493A683B1C1033201CA5
:10C84800FFF7B8F83B1C1033181CFFF79BFD7B68FB
:10C8580011E03B1C0C33181CFDF776FC002C04D1AE
:10C86800074B181CFDF7E6FCFFE77B68181CFDF773
:10C8780019FEFDF757FB181CBD460BB090BDC0460E
:10C88800E00A0200840C02002C4C0100BC9F00004E
:10C89800E007020090B58BB000AF786039607B6824
:10C8A800181CFEF7BFFE334B1A680123134029D129
:10C8B800304B181CFDF7B0FA031C5A1E93411B0697
:10C8C8001B0E1FD000243B1C0C33181CFDF7DAFC90
:10C8D80029492A4A3B1C0C33081C111C1A1CFDF759
:10C8E800B5FB244B181CFDF783FB2349244A254B31
:10C8F800081C111C1A1CFDF73FFC3B1C0C33181CB0
:10C90800FDF722FC3B68181CFDF75AFB031C002BA3
:10C9180005D03A681C4B101C191CFDF729FA7C68D5
:10C928003B1C1033181C00F0DBFD13493A683B1C14
:10C938001033201CFFF73EF83B1C1033181CFFF780
:10C9480021FD7B6811E03B1C0C33181CFDF7FCFB38
:10C95800002C04D1074B181CFDF76CFCFFE77B6823
:10C96800181CFDF79FFDFDF7DDFA181CBD460BB03E
:10C9780090BDC046700B0200880C0200484C0100B4
:10C98800BC9F0000E0070200644C010080B584B041
:10C9980000AFF860B9607A60BA687B68101C191C2F
:10C9A800FDF7D6F9021CFB681A60FB68181CBD4627
:10C9B80004B080BD80B582B000AF78607B681B682A
:10C9C800013304D07B681B68181CFDF775FB7B6876
:10C9D800181CBD4602B080BD80B582B000AF78603B
:10C9E8007B68181CFEF7ECFD7B68181CBD4602B07E
:10C9F80080BDC04680B582B000AF78607B680433E4
:10CA0800181C00F0A1F97B68181CBD4602B080BD57
:10CA180080B582B000AF78607B68181CFFF7EAFF2A
:10CA28007B68181CBD4602B080BDC046B0B584B056
:10CA380000AF786039607B68181C00F057FE7B688F
:10CA48003A681A617B6800221A757B681C1C1834C6
:10CA58003B1C0C33181C00F05BFE3B1C0C33201CE9
:10CA680018211A1C00F070FE3B1C0C33181C00F037
:10CA78005DFE7B681D1C24350420FDF715FB041C96
:10CA8800124B201C191C0022FFF780FF281C211CB8
:10CA980000F096FE7B6814E03B1C0C33181C00F079
:10CAA80045FE08E0201CFDF7E5F9FFE77B68183331
:10CAB800181C00F069FE7B68181CFFF78DFFFDF756
:10CAC80031FA181CBD4604B0B0BDC046744C010014
:10CAD80080B5B0B000AF78600A1CFB1C1A703B1C14
:10CAE8000833181C1021FDF7DBFB3A1C0832224BD7
:10CAF800101C191CFDF74CFA021C7B68101C191C31
:10CB0800FDF70AFBFB1C1B78012253401B061B0E7A
:10CB180006D03A1C0832194B101C191CFDF738FABC
:10CB28003A1CBC323B1C0833101C191CFDF7F2F9E7
:10CB38003B1CBC33181CFDF795F9031C181CFDF7AA
:10CB4800C1F93B1CBC33181CFDF732FA3B1C0833F7
:10CB5800181CFDF7E9FA0CE03B1CBC33181CFDF768
:10CB680027FAFFE73B1C0833181CFDF7DDFAFDF731
:10CB7800D9F9BD4630B080BDA44C0100B44C0100C9
:10CB880080B5B0B000AF78600A1CFB1C1A703B1C63
:10CB98000833181C1021FDF783FB3A1C0832284B78
:10CBA800101C191CFDF7F4F9021C7B68101C191CD9
:10CBB800FDF7B2FA021C234B101C191CFDF7E8F90B
:10CBC800021C214B101C191CFDF7E2F9FB1C1B78F9
:10CBD800012253401B061B0E06D03A1C08321B4B81
:10CBE800101C191CFDF7D4F93A1CBC323B1C083345
:10CBF800101C191CFDF78EF93B1CBC33181CFDF7E3
:10CC080031F9031C181CFDF75DF93B1CBC33181CDB
:10CC1800FDF7CEF93B1C0833181CFDF785FA0CE02C
:10CC28003B1CBC33181CFDF7C3F9FFE73B1C08335A
:10CC3800181CFDF779FAFDF775F9BD4630B080BDCF
:10CC4800E84C01000C4D0100104D0100B44C0100EE
:10CC580080B584B000AFF860B9607A60FA68BB68E4
:10CC6800101C191CFDF76EF9FA687B68101C191C5A
:10CC7800FDF78AFA05E0FB68181CFDF799F9FDF73E
:10CC880051F9F868BD4604B080BDC04680B582B091
:10CC980000AF78607B68181CBD4602B080BDC046F6
:10CCA80090B587B000AFF860B9607A60BB68181CAF
:10CCB800FDF700F9041C7B68181CFDF7FBF8031C42
:10CCC800E3187B61BB68181CFDF78EFA021C7B69B0
:10CCD8009A4209D27B68181CFDF786FA021C7B6908
:10CCE8009A4201D3012300E000233A1C1332137047
:10CCF8003B1C13331B78002B11D0FC687A68BB6887
:10CD0800101C00211A1CFDF72BF8031C181CFFF738
:10CD1800BDFF031C201C191CFDF7CAFA0FE0FC68B4
:10CD2800BA687B68101C191CFDF7EAFA031C181C6A
:10CD3800FFF7ACFF031C201C191CFDF7B9FAC0460D
:10CD4800F868BD4607B090BD80B582B000AF786086
:10CD58007B681B68002B04D07B681B68181C00F0DC
:10CD68007DFD7B68181CBD4602B080BD80B582B0D1
:10CD780000AF78607B68181C00F0C2FD7B68181C47
:10CD8800BD4602B080BDC04680B582B000AF7860B5
:10CD980039607B683A681A607B680433181C00F0B5
:10CDA80093FD7B68181CBD4602B080BD80B582B07B
:10CDB80000AF78607B68181C00F0D0FD7B68181CF9
:10CDC800BD4602B080BDC04680B582B000AF786075
:10CDD80039607B683A681A607B680433181C00F075
:10CDE800A1FD7B68181CBD4602B080BD80B582B02D
:10CDF80000AF786039607B683A681A607B681B68A6
:10CE0800181CFEF713FD7B68181CBD4602B080BDD8
:10CE180080B582B000AF78607B681B68181CFEF78D
:10CE280019FD7B68181CBD4602B080BD90B585B061
:10CE380000AF786039607A683B68101C191C00F0F4
:10CE4800B1FD031CBB607B680433181C00F0C6FDF1
:10CE5800031CFB603A1C08323B1C0C33101C191CC9
:10CE680000F0CCFD031C002B0ED07B681C1D7B68DA
:10CE78000433181C00F0D4FD011C7B681A1DBB6824
:10CE8800201C00F0E9FD1BE004E07B680433181C5B
:10CE980000F00EFE7B680433181C00F0F1FD031C43
:10CEA8005A1C7B681B6893429B415B421B061B0E06
:10CEB800EBD17B681A1D3B68101C191C00F018FE8A
:10CEC8007B680433181C00F02BFE031C0433181C69
:10CED800BD4605B090BDC04690B585B000AF78603E
:10CEE80039607A683B68101C191C00F03FFE031C6F
:10CEF800BB607B680433181C00F054FE031CFB6005
:10CF08003A1C08323B1C0C33101C191C00F05AFE4A
:10CF1800031C002B0ED07B681C1D7B680433181C77
:10CF280000F062FE011C7B681A1DBB68201C00F023
:10CF380077FE1BE004E07B680433181C00F09CFEBD
:10CF48007B680433181C00F07FFE031C5A1C7B68A6
:10CF58001B6893429B415B421B061B0EEBD17B680F
:10CF68001A1D3B68101C191C00F09CFE7B680433DA
:10CF7800181C00F0AFFE031C0433181CBD4605B096
:10CF880090BDC04680B584B000AFF860B960FB1DA5
:10CF98001A70BA68FB1D1B781B061B16101C012192
:10CFA8001A1CFDF72DF8031C181CFFF76FFE031C55
:10CFB800FA68101C191CFDF77BF9F868BD4604B027
:10CFC80080BDC04680B582B000AF78607B68181C11
:10CFD80000F094FE031C181CBD4602B080BDC0467C
:10CFE80080B582B000AF78607B68181C00F098FEAE
:10CFF800031C181CBD4602B080BDC04680B582B077
:10D0080000AF786039607B681A683B681B68D31A80
:10D018005A1E93411B061B0E181CBD4602B080BD4C
:10D0280080B582B000AF78607B681B68181CFDF77C
:10D0380005F8021C7B681A607B68181CBD4602B0A4
:10D0480080BDC04680B582B000AF78607B681B6841
:10D058001033181CBD4602B080BDC04680B582B0F2
:10D0680000AF78607B68181C00F06CFE031C181C6D
:10D07800BD4602B080BDC04680B582B000AF7860C2
:10D088007B68181C00F06CFE031C181CBD4602B01F
:10D0980080BDC04680B582B000AF78607B681B68F1
:10D0A8001033181C00F06EFE031C181CBD4602B09D
:10D0B80080BDC04680B582B000AF786039607A68BC
:10D0C8003B68101C191CFDF77BFE031C181CBD4691
:10D0D80002B080BD80B582B000AF78607B68181C54
:10D0E800FDF75CFE031C181CBD4602B080BDC0469F
:10D0F80080B584B000AFF860B9607A60FA68BB6840
:10D10800101C191CFCF71EFFFA687B68101C191C00
:10D11800FDF7F6F805E0FB68181CFCF749FFFCF77B
:10D1280001FFF868BD4604B080BDC04680B582B036
:10D1380000AF78607B68181C00F02EFE7B68181C16
:10D14800BD4602B080BDC04680B582B000AF7860F1
:10D158007B681B68181CBD4602B080BD80B582B0D4
:10D1680000AF78607B68181CBD4602B080BDC04621
:10D1780080B582B000AF78607B68181CBD4602B0ED
:10D1880080BDC04690B585B000AFF860B9607A60E0
:10D19800FC68BB68181CFFF7E1FF031C201C191C66
:10D1A80000F086FE7B68181CFFF7E2FF031C1A7864
:10D1B800FB681A71FB68181CBD4605B090BDC046D7
:10D1C80080B586B000AFF860B9607A60BA68391C7B
:10D1D80010317B68081C111C1A1C00F011FEF9683C
:10D1E8003A1C10323B1C10330433081C111C1A1C47
:10D1F800FFF7C8FFF868BD4606B080BD80B582B0AD
:10D2080000AF78607B68181C00F060FE7B68181C13
:10D21800BD4602B080BDC04680B582B000AF786020
:10D228007B68181C00F05CFE7B68181CBD4602B0C9
:10D2380080BDC04680B582B000AF78607B681B684F
:10D24800181CBD4602B080BD80B582B000AF7860C2
:10D258007B685B68181CBD4602B080BD90B583B082
:10D2680000AF78607B68181CFFF7E4FF041C7B683C
:10D27800181CFFF7E9FF031C9B00E318181CBD46A8
:10D2880003B090BDB0B586B000AFF860381D01603E
:10D2980042603B60FC683A1C1432BB6A101C191CC3
:10D2A80000F028FE3A683B1C1433201C111C1A1C81
:10D2B80000F030FE3B1C1433181CFFF7ADFFFD686F
:10D2C8003B1D181CFFF7B6FF041C3B1D181CFFF77D
:10D2D800C5FF031C281C211C1A1C00F043FEFB6818
:10D2E8000CE03B1C1433181CFFF796FFFCF71AFEE2
:10D2F800FB68181CFDF7A4FBFCF714FE181CBD46C0
:10D3080006B0B0BD80B582B000AF786039607A6889
:10D318003B68101C191C00F04DFE7B68181CBD46AC
:10D3280002B080BD80B582B000AF78607B68181C01
:10D3380000F0A2FE7B68181CBD4602B080BDC04646
:10D3480080B582B000AF78607B68181C00F09EFE44
:10D358007B68181CBD4602B080BDC04680B582B04F
:10D3680000AF78607B681B68181CBD4602B080BDA2
:10D3780080B582B000AF78607B685B68181CBD46DA
:10D3880002B080BD90B583B000AF78607B68181C90
:10D39800FFF7E4FF041C7B68181CFFF7E9FF021C79
:10D3A800131CDB009B1A9B00E318181CBD4603B036
:10D3B80090BDC046B0B586B000AFF860381D0160BA
:10D3C80042603B60FC683A1C1432BB6A101C191C92
:10D3D80000F066FE3A683B1C1433201C111C1A1C12
:10D3E80000F06EFE3B1C1433181CFFF7A9FFFD6804
:10D3F8003B1D181CFFF7B2FF041C3B1D181CFFF750
:10D40800C1FF031C281C211C1A1C00F081FEFB68AC
:10D418000CE03B1C1433181CFFF792FFFCF782FD4D
:10D42800FB68181C00F014F8FCF77CFD181CBD46BE
:10D4380006B0B0BD80B582B000AF78607B68181CBC
:10D4480000F08EFE7B68181CBD4602B080BDC04649
:10D4580080B582B000AF78607B68181C00F0B2FE1F
:10D46800031C7A68101C191C00F088FE7B68181CC5
:10D47800FFF7E0FF7B68181CBD4602B080BDC046C0
:10D48800B0B582B000AF786039607B68181CFCF7D3
:10D4980011FD041C3B68181CFCF70CFD031C9C4286
:10D4A80018D17B68181CFCF72FFE051C3B68181C5C
:10D4B800FCF72AFE041C7B68181CFCF7FBFC031C09
:10D4C800281C211C1A1CFDF7DBFF031C002B01D1B3
:10D4D800012300E00023181CBD4602B0B0BDC046C1
:10D4E80080B582B000AF78607B68181C00F074FECD
:10D4F8007B68181CBD4602B080BDC04680B582B0AE
:10D5080000AF78607B68181C00F074FE7B68181CFC
:10D51800BD4602B080BDC04680B582B000AF78601D
:10D528007B68181C00F070FE7B68181CBD4602B0B2
:10D5380080BDC04680B582B000AF78607B681B684C
:10D54800181CBD4602B080BD80B582B000AF7860BF
:10D558007B685B68181CBD4602B080BD90B583B07F
:10D5680000AF78607B68181CFFF7E4FF041C7B6839
:10D57800181CFFF7E9FF031C9B00E318181CBD46A5
:10D5880003B090BDB0B586B000AFF860381D01603B
:10D5980042603B60FA683B68101C191C00F04CFEA6
:10D5A8003B1D181CFFF7C6FF041C3B1D181CFFF78A
:10D5B800D5FF031CFA68101C211C1A1C2B1C00F038
:10D5C80067FEFB6805E0FB68181C00F045FEFCF7E9
:10D5D800A9FC181CBD4606B0B0BDC04680B582B0D7
:10D5E80000AF78607B68181C00F086FE7B68181C0A
:10D5F800BD4602B080BDC04680B582B000AF78603D
:10D608007B68181C00F082FE7B68181CBD4602B0BF
:10D6180080BDC04680B582B000AF78607B681B686B
:10D62800181CBD4602B080BD80B582B000AF7860DE
:10D638007B685B68181CBD4602B080BD90B583B09E
:10D6480000AF78607B68181CFFF7E4FF041C7B6858
:10D65800181CFFF7E9FF031C9B00E318181CBD46C4
:10D6680003B090BDB0B586B000AFF860381D01605A
:10D6780042603B60FA683B68101C191C00F05EFEB3
:10D688003B1D181CFFF7C6FF041C3B1D181CFFF7A9
:10D69800D5FF031CFA68101C211C1A1C2B1C00F057
:10D6A80079FEFB6805E0FB68181C00F057FEFCF7E4
:10D6B80039FC181CBD4606B0B0BDC04680B582B066
:10D6C80000AF78607B68181CBD4602B080BDC046BC
:10D6D80080B582B000AF78607B68181CFFF7EEFF5A
:10D6E8007B68181CBD4602B080BDC04680B582B0BC
:10D6F80000AF78607B68181CFFF7EAFF7B68181C8E
:10D70800FDF752FF7B68181CBD4602B080BDC046BD
:10D7180080B582B000AF78607B68181C00F06EFEA0
:10D728007B68181CBD4602B080BDC04680B582B07B
:10D7380000AF78607B68181C00F06AFE7B68181CD4
:10D74800BD4602B080BDC04680B584B000AFF86069
:10D75800B9607A60F968BA687B68081C111C1A1CE1
:10D7680000F06EFEFA68BB68101C191C00F0A2FEDF
:10D77800FB6805E0FB68181C00F080FEFCF7D2FB94
:10D78800181CBD4604B080BDB0B582B000AF78604B
:10D798007B681D687B685C687B68181C00F0A4FEC9
:10D7A800031C281C211C1A1C00F0A8FE7B68181CEE
:10D7B80000F064FE7B68181CBD4602B0B0BDC046D0
:10D7C80080B582B000AF786039607A683B68101C19
:10D7D800191C00F0A3FE7B68181CBD4602B080BD72
:10D7E80080B582B000AF78607B68181CBD4602B077
:10D7F80080BDC046B0B582B000AF78607B681D6858
:10D808007B685C687B68181C00F0A6FE031C281C5B
:10D81800211C1A1C00F0AAFE7B68181C00F09EFD53
:10D828007B68181CBD4602B0B0BDC04680B582B04A
:10D8380000AF78607B68181C00F0A8FE031C181C59
:10D84800BD4602B080BDC04680B582B000AF7860EA
:10D858007B68181CBD4602B080BDC04680B582B04A
:10D8680000AF78607B681A1C1C3201235B42101CD5
:10D87800191CFDF779FE031C013B5A4253411B0654
:10D888001B0E1DD07B681B6808331B687A68101C48
:10D8980098477B681A1C203201235B42101C191C14
:10D8A800FDF762FE031C013B5A4253411B061B0E47
:10D8B80006D07B681B680C331B687A68101C984775
:10D8C800BD4602B080BDC04680B582B000AF78606A
:10D8D8007B68181C00F0C6FE7B68181CBD4602B0A9
:10D8E80080BDC04680B582B000AF78607B68181CE8
:10D8F80000F0CAFE7B68181CBD4602B080BDC04659
:10D9080080B582B000AF78607B68181C00F0CAFE52
:10D918007B68181CFFF7E6FF7B68181CBD4602B041
:10D9280080BDC04680B582B000AF78607B68181CA7
:10D9380000F0DCFE7B68181CBD4602B080BDC04606
:10D9480080B582B000AF78607B68181C00F0E0FEFC
:10D958007B68181CBD4602B080BDC04680B582B049
:10D9680000AF78607B68181C00F0E0FE7B68181C2C
:10D97800FFF7E6FF7B68181CBD4602B080BDC046B5
:10D9880080B582B000AF786039603A687B681B6800
:10D99800101C191CFFF774FD031C181CBD4602B0AF
:10D9A80080BDC04690B583B000AF786039607B68B1
:10D9B8000433181C00F034F8041C7B680433181C6A
:10D9C80000F00CF8021C3B68201C111C1A1C00F00B
:10D9D800D1FE031C181CBD4603B090BD80B584B0B1
:10D9E80000AF78607B683A1C0C32101C191C00F0E0
:10D9F800DBFEFB68181CBD4604B080BD80B582B054
:10DA080000AF786039607B681A683B681B68D31A76
:10DA18005A1E93411B061B0E181CBD4602B080BD42
:10DA280080B584B000AF78607B681B683A1C0C3204
:10DA3800101C191C00F0B8FEFB68181CBD4604B089
:10DA480080BDC04680B582B000AF78607B68181C86
:10DA5800BD4602B080BDC04680B584B000AFF86056
:10DA6800B9607A603B607B68181CFFF7EBFF021C0B
:10DA7800F868B9683B6800F0A5FEBD4604B080BDF3
:10DA880090B583B000AF78607B68181C00F0D6FEB4
:10DA9800041C7B68181C00F0E3FE031C201C191CE6
:10DAA80000F0EEFE031C181CBD4603B090BDC04636
:10DAB80080B584B000AF78607B685B683A1C0C3234
:10DAC800101C191C00F070FE7A68FB68101C191CE9
:10DAD80000F0ECFEBD4604B080BDC04680B582B003
:10DAE80000AF78607B68181CBD4602B080BDC04698
:10DAF80090B583B000AF786039607B68181CFFF779
:10DB08008FFF041C3B68181CFFF7E8FF031C7A68AA
:10DB1800101C211C1A1C00F0E7FEBD4603B090BD86
:10DB280080B584B000AF78607B68181CFFF778FF79
:10DB3800031CFB603B1C0C33181C00F0F1FE031C9B
:10DB4800181CBD4604B080BD80B582B000AF7860B7
:10DB580039603A687B681B68101C191CFFF790FC39
:10DB6800031C181CBD4602B080BDC04690B583B0EA
:10DB780000AF786039607B680433181C00F034F813
:10DB8800041C7B680433181C00F00CF8021C3B686A
:10DB9800201C111C1A1C00F0CFFE031C181CBD46CB
:10DBA80003B090BD80B584B000AF78607B683A1C44
:10DBB8000C32101C191C00F0D9FEFB68181CBD465D
:10DBC80004B080BD80B582B000AF786039607B68F2
:10DBD8001A683B681B68D31A5A1E93411B061B0E12
:10DBE800181CBD4602B080BD80B584B000AF786017
:10DBF8007B681B683A1C0C32101C191C00F0B6FE1E
